{
  "_format": "hh-sol-artifact-1",
  "contractName": "EnergyLogStorage",
  "sourceName": "contracts/EnergyLogStorage.sol",
  "abi": [
    {
      "inputs": [
        {
          "internalType": "string",
          "name": "date",
          "type": "string"
        },
        {
          "internalType": "externalEuint64",
          "name": "electricity",
          "type": "bytes32"
        },
        {
          "internalType": "externalEuint64",
          "name": "gas",
          "type": "bytes32"
        },
        {
          "internalType": "externalEuint64",
          "name": "water",
          "type": "bytes32"
        },
        {
          "internalType": "bytes",
          "name": "inputProof",
          "type": "bytes"
        }
      ],
      "name": "addEnergyLog",
      "outputs": [],
      "stateMutability": "nonpayable",
      "type": "function"
    },
    {
      "inputs": [
        {
          "internalType": "address",
          "name": "account",
          "type": "address"
        },
        {
          "internalType": "uint256",
          "name": "index",
          "type": "uint256"
        }
      ],
      "name": "getDate",
      "outputs": [
        {
          "internalType": "string",
          "name": "",
          "type": "string"
        }
      ],
      "stateMutability": "view",
      "type": "function"
    },
    {
      "inputs": [
        {
          "internalType": "address",
          "name": "account",
          "type": "address"
        },
        {
          "internalType": "uint256",
          "name": "index",
          "type": "uint256"
        }
      ],
      "name": "getElectricity",
      "outputs": [
        {
          "internalType": "euint64",
          "name": "",
          "type": "bytes32"
        }
      ],
      "stateMutability": "view",
      "type": "function"
    },
    {
      "inputs": [
        {
          "internalType": "address",
          "name": "account",
          "type": "address"
        },
        {
          "internalType": "uint256",
          "name": "index",
          "type": "uint256"
        }
      ],
      "name": "getGas",
      "outputs": [
        {
          "internalType": "euint64",
          "name": "",
          "type": "bytes32"
        }
      ],
      "stateMutability": "view",
      "type": "function"
    },
    {
      "inputs": [
        {
          "internalType": "address",
          "name": "account",
          "type": "address"
        },
        {
          "internalType": "uint256",
          "name": "index",
          "type": "uint256"
        }
      ],
      "name": "getLog",
      "outputs": [
        {
          "internalType": "string",
          "name": "date",
          "type": "string"
        },
        {
          "internalType": "euint64",
          "name": "electricity",
          "type": "bytes32"
        },
        {
          "internalType": "euint64",
          "name": "gas",
          "type": "bytes32"
        },
        {
          "internalType": "euint64",
          "name": "water",
          "type": "bytes32"
        }
      ],
      "stateMutability": "view",
      "type": "function"
    },
    {
      "inputs": [
        {
          "internalType": "address",
          "name": "account",
          "type": "address"
        }
      ],
      "name": "getLogCount",
      "outputs": [
        {
          "internalType": "uint256",
          "name": "",
          "type": "uint256"
        }
      ],
      "stateMutability": "view",
      "type": "function"
    },
    {
      "inputs": [
        {
          "internalType": "address",
          "name": "account",
          "type": "address"
        },
        {
          "internalType": "uint256",
          "name": "index",
          "type": "uint256"
        }
      ],
      "name": "getWater",
      "outputs": [
        {
          "internalType": "euint64",
          "name": "",
          "type": "bytes32"
        }
      ],
      "stateMutability": "view",
      "type": "function"
    },
    {
      "inputs": [],
      "name": "protocolId",
      "outputs": [
        {
          "internalType": "uint256",
          "name": "",
          "type": "uint256"
        }
      ],
      "stateMutability": "pure",
      "type": "function"
    }
  ],
  "bytecode": "0x608060405234801561000f575f5ffd5b5061018a6100ae604080516080810182525f80825260208201819052918101829052606081019190915250604080516080810182527350157cffd6bbfa2dece204a89ec419c23ef5755d815273cd3ab3bd6bcc0c0bf3e27912a92043e817b1cf69602082015273a02cda4ca3a71d7c46997716f4283aa851c2881291810191909152731364cbbf2cdf5032c47d8226a6f6fbd2afcdacac606082015290565b80517f9e7b61f58c47dc699ac88507c4f5bb9f121c03808c5676a8078fe583e464970080546001600160a01b03199081166001600160a01b039384161790915560208301517f9e7b61f58c47dc699ac88507c4f5bb9f121c03808c5676a8078fe583e46497018054831691841691909117905560408301517f9e7b61f58c47dc699ac88507c4f5bb9f121c03808c5676a8078fe583e46497028054831691841691909117905560608301517f9e7b61f58c47dc699ac88507c4f5bb9f121c03808c5676a8078fe583e46497038054909216921691909117905550565b610e66806101975f395ff3fe608060405234801561000f575f5ffd5b5060043610610085575f3560e01c806396cefe631161005857806396cefe631461011a578063d5da10fc1461012d578063da1f12ab14610142578063dac312b41461014a575f5ffd5b8063082d2ead146100895780631d6867f7146100c45780633f70d56e146100d7578063959e69c0146100fa575b5f5ffd5b6100b1610097366004610ac9565b6001600160a01b03165f9081526001602052604090205490565b6040519081526020015b60405180910390f35b6100b16100d2366004610ae2565b61015d565b6100ea6100e5366004610ae2565b610200565b6040516100bb9493929190610b38565b61010d610108366004610ae2565b610349565b6040516100bb9190610b66565b6100b1610128366004610ae2565b61046e565b61014061013b366004610bbd565b61050b565b005b6127116100b1565b6100b1610158366004610ae2565b610833565b6001600160a01b0382165f9081526001602052604081205482106101be5760405162461bcd60e51b8152602060048201526013602482015272496e646578206f7574206f6620626f756e647360681b60448201526064015b60405180910390fd5b6001600160a01b0383165f9081526020819052604090208054839081106101e7576101e7610c48565b905f5260205f2090600402016003015490505b92915050565b6001600160a01b0382165f90815260016020526040812054606091908190819085106102645760405162461bcd60e51b8152602060048201526013602482015272496e646578206f7574206f6620626f756e647360681b60448201526064016101b5565b6001600160a01b0386165f90815260208190526040812080548790811061028d5761028d610c48565b905f5260205f2090600402019050805f018160010154826002015483600301548380546102b990610c5c565b80601f01602080910402602001604051908101604052809291908181526020018280546102e590610c5c565b80156103305780601f1061030757610100808354040283529160200191610330565b820191905f5260205f20905b81548152906001019060200180831161031357829003601f168201915b5050505050935094509450945094505092959194509250565b6001600160a01b0382165f9081526001602052604090205460609082106103a85760405162461bcd60e51b8152602060048201526013602482015272496e646578206f7574206f6620626f756e647360681b60448201526064016101b5565b6001600160a01b0383165f9081526020819052604090208054839081106103d1576103d1610c48565b905f5260205f2090600402015f0180546103ea90610c5c565b80601f016020809104026020016040519081016040528092919081815260200182805461041690610c5c565b80156104615780601f1061043857610100808354040283529160200191610461565b820191905f5260205f20905b81548152906001019060200180831161044457829003601f168201915b5050505050905092915050565b6001600160a01b0382165f9081526001602052604081205482106104ca5760405162461bcd60e51b8152602060048201526013602482015272496e646578206f7574206f6620626f756e647360681b60448201526064016101b5565b6001600160a01b0383165f9081526020819052604090208054839081106104f3576104f3610c48565b905f5260205f20906004020160020154905092915050565b5f61054b8684848080601f0160208091040260200160405190810160405280939291908181526020018383808284375f920191909152506108d092505050565b90505f61058d8685858080601f0160208091040260200160405190810160405280939291908181526020018383808284375f920191909152506108d092505050565b90505f6105cf8686868080601f0160208091040260200160405190810160405280939291908181526020018383808284375f920191909152506108d092505050565b90505f60405180608001604052808c8c8080601f0160208091040260200160405190810160405280939291908181526020018383808284375f92018290525093855250505060208083018890526040808401889052606090930186905233825281815291812080546001810182559082529190208251929350839260049092020190819061065d9082610cf4565b506020828101516001808401919091556040808501516002850155606090940151600390930192909255335f90815291905290812080549161069e83610dc3565b9091555050335f9081526001602081905260408220546106be9190610ddb565b335f90815260208190526040902080549192506106fa91839081106106e5576106e5610c48565b905f5260205f209060040201600101546108e4565b50335f908152602081905260409020805461073591908390811061072057610720610c48565b905f5260205f209060040201600201546108e4565b50335f908152602081905260409020805461077091908390811061075b5761075b610c48565b905f5260205f209060040201600301546108e4565b50335f90815260208190526040902080546107ac91908390811061079657610796610c48565b905f5260205f20906004020160010154336108f3565b50335f90815260208190526040902080546107e89190839081106107d2576107d2610c48565b905f5260205f20906004020160020154336108f3565b50335f908152602081905260409020805461082491908390811061080e5761080e610c48565b905f5260205f20906004020160030154336108f3565b50505050505050505050505050565b6001600160a01b0382165f90815260016020526040812054821061088f5760405162461bcd60e51b8152602060048201526013602482015272496e646578206f7574206f6620626f756e647360681b60448201526064016101b5565b6001600160a01b0383165f9081526020819052604090208054839081106108b8576108b8610c48565b905f5260205f20906004020160010154905092915050565b5f6108dd83836005610905565b9392505050565b5f6108ef8230610a25565b5090565b5f6108fe8383610a25565b5090919050565b7f9e7b61f58c47dc699ac88507c4f5bb9f121c03808c5676a8078fe583e46497015460405163196d0b9b60e01b81525f917f9e7b61f58c47dc699ac88507c4f5bb9f121c03808c5676a8078fe583e4649700916001600160a01b039091169063196d0b9b9061097e908890339089908990600401610dee565b6020604051808303815f875af115801561099a573d5f5f3e3d5ffd5b505050506040513d601f19601f820116820180604052508101906109be9190610e42565b8154604051630f8e573b60e21b8152600481018390523360248201529193506001600160a01b031690633e395cec906044015f604051808303815f87803b158015610a07575f5ffd5b505af1158015610a19573d5f5f3e3d5ffd5b50505050509392505050565b5f7f9e7b61f58c47dc699ac88507c4f5bb9f121c03808c5676a8078fe583e46497008054604051635ca4b5b160e11b8152600481018690526001600160a01b03858116602483015292935091169063b9496b62906044015f604051808303815f87803b158015610a93575f5ffd5b505af1158015610aa5573d5f5f3e3d5ffd5b50505050505050565b80356001600160a01b0381168114610ac4575f5ffd5b919050565b5f60208284031215610ad9575f5ffd5b6108dd82610aae565b5f5f60408385031215610af3575f5ffd5b610afc83610aae565b946020939093013593505050565b5f81518084528060208401602086015e5f602082860101526020601f19601f83011685010191505092915050565b608081525f610b4a6080830187610b0a565b6020830195909552506040810192909252606090910152919050565b602081525f6108dd6020830184610b0a565b5f5f83601f840112610b88575f5ffd5b50813567ffffffffffffffff811115610b9f575f5ffd5b602083019150836020828501011115610bb6575f5ffd5b9250929050565b5f5f5f5f5f5f5f60a0888a031215610bd3575f5ffd5b873567ffffffffffffffff811115610be9575f5ffd5b610bf58a828b01610b78565b909850965050602088013594506040880135935060608801359250608088013567ffffffffffffffff811115610c29575f5ffd5b610c358a828b01610b78565b989b979a50959850939692959293505050565b634e487b7160e01b5f52603260045260245ffd5b600181811c90821680610c7057607f821691505b602082108103610c8e57634e487b7160e01b5f52602260045260245ffd5b50919050565b634e487b7160e01b5f52604160045260245ffd5b601f821115610cef57805f5260205f20601f840160051c81016020851015610ccd5750805b601f840160051c820191505b81811015610cec575f8155600101610cd9565b50505b505050565b815167ffffffffffffffff811115610d0e57610d0e610c94565b610d2281610d1c8454610c5c565b84610ca8565b6020601f821160018114610d54575f8315610d3d5750848201515b5f19600385901b1c1916600184901b178455610cec565b5f84815260208120601f198516915b82811015610d835787850151825560209485019460019092019101610d63565b5084821015610da057868401515f19600387901b60f8161c191681555b50505050600190811b01905550565b634e487b7160e01b5f52601160045260245ffd5b5f60018201610dd457610dd4610daf565b5060010190565b818103818111156101fa576101fa610daf565b8481526001600160a01b0384166020820152608060408201525f610e156080830185610b0a565b905060548310610e3357634e487b7160e01b5f52602160045260245ffd5b82606083015295945050505050565b5f60208284031215610e52575f5ffd5b505191905056fea164736f6c634300081b000a",
  "linkReferences": {},
  "deployedLinkReferences": {}
}